:020000040800F2
:1000000010C3012089020008970200089902000825
:100010009B0200089D0200089F02000800000000EB
:10002000000000000000000000000000A102000825
:10003000A302000800000000A5020008A7020008B3
:10004000A9020008A9020008A9020008A9020008E4
:10005000A9020008A9020008A9020008A9020008D4
:10006000A9020008A9020008A9020008A9020008C4
:10007000A9020008A9020008A9020008A9020008B4
:10008000A9020008A9020008A9020008A9020008A4
:10009000A9020008A9020008A9020008A902000894
:1000A000A9020008A9020008A9020008A902000884
:1000B000A9020008A90200083D260008A9020008BC
:1000C000A9020008A9020008A9020008A902000864
:1000D000A9020008BD260008A9020008A90200081C
:1000E000A9020008A9020008A9020008A902000844
:1000F000A9020008A9020008A9020008A902000834
:10010000A9020008A9020008A9020008A902000823
:10011000A9020008A902000879260008A90200081F
:10012000A9020008E90C0008A9020008A9020008B9
:10013000A9020008A9020008A9020008A9020008F3
:10014000A9020008A9020008A9020008A9020008E3
:10015000A9020008A9020008A9020008A9020008D3
:10016000A9020008A9020008A9020008A9020008C3
:10017000A9020008A9020008A50C00080000000060
:10018000A9020008A902000800F002F800F06DF8CA
:100190000AA090E8000C82448344AAF10107DA45E2
:1001A00001D100F062F8AFF2090EBAE80F0013F0C7
:1001B000010F18BFFB1A43F001031847788E0100A6
:1001C000988E01000A444FF0000C10F8013B13F028
:1001D000070408BF10F8014B1D1108BF10F8015BA0
:1001E000641E05D010F8016B641E01F8016BF9D193
:1001F00013F0080F1EBF10F8014BAD1C0C1B09D1EA
:100200006D1E58BF01F801CBFAD505E014F8016B5B
:1002100001F8016B6D1EF9D59142D6D370470000ED
:100220000023002400250026103A28BF78C1FBD8FF
:10023000520728BF30C148BF0B607047642900F0E7
:100240005181752900F04E81782900F0878163295A
:1002500000F08584732900F08A84002070471FB560
:1002600014F0E9FD1FBD10B510BD00F0A3FC114650
:10027000FFF7F5FF0EF0B4F900F0C1FC03B4FFF78F
:10028000F2FF03BC04F0CFFC0B48016841F470019D
:1002900001600A480047FEE7FEE7FEE7FEE7FEE7EB
:1002A000FEE7FEE7FEE7FEE7FEE70000044805493B
:1002B000034A054B7047000088ED00E08901000803
:1002C00010BF012010C3012010BF0120704753EA66
:1002D000020C00F069802DE9F04B4FF00006002B76
:1002E0001FBFB3FA83F503FA05F424FA05F65E405E
:1002F00012BF1643B2FA82F502FA05F4C5F12005E1
:100300001EBF22FA05FC44EA0C04203556EA044CD0
:100310004FEA144418BF641C4FF000084FF0000966
:10032000904271EB030C39D3002919BFB1FA81F760
:1003300001FA07F6B0FA80F700FA07F6C7F12007CE
:100340001EBF20FA07FC46EA0C062037B6FBF4FC79
:10035000A7EB0507103F07F01F0BCBF120060CFAA7
:100360000BFB2CFA06F644BFB3460026202FA4BF91
:100370005E464FF0000B5BEA060C08BF4FF0010B26
:1003800019EB0B09ABFB027C48EB0608C01B06FB14
:1003900002CC0BFB03CC71EB0C01C1E70B46024610
:1003A00041464846BDE8F08B13B54FF000004FF0D2
:1003B0000001AFF30080BDE81C40704710B54C1041
:1003C00084EA530404D54042C1F1000138BF491EFC
:1003D0001B4204D55242C3F1000338BF5B1EFFF736
:1003E00076FF14F0804F04D04042C1F1000138BFC5
:1003F000491E14F0004F04D05242C3F1000338BF2D
:100400005B1E10BD0FB4044910B503AA029800F09A
:10041000B3FB10BC5DF814FB1C0000200FB41CB52E
:10042000074B06AA7B4469460090059800F075FBCF
:100430000020694600F084FB1CBC5DF814FB000042
:100440001907000070B5044685690068C10601D52A
:10045000302600E02026C00707D070BDD4E9012176
:1004600030469047206A401C20626D1EF6D570BD54
:1004700070B5044685690078C00707D170BDD4E91E
:10048000012120209047206A401C20626D1EF6D575
:1004900070BD70B50C460546012A05D02878800647
:1004A00000D5EA69002302E0012305E05B1C9342CA
:1004B00002D2E05C0028F9D1A869E618C01AA86148
:1004C000286A184428622846FFF7BCFF04E0D5E9F3
:1004D000012114F8010B9047B442F8D32846FFF7E6
:1004E000C7FF70BD2DE9F04106460024106875294C
:1004F000314616A510D0AFF30080002802DA404242
:1005000013A507E031688A0701D512A502E0490763
:1005100004D511A5012401E0AFF3008000210A22D7
:1005200006F1240709E0B0FBF2FCB0FBF2F302FB9A
:100530001C00303078541846491C0028F3D123465B
:100540002A463046BDE8F04100F089BA00000000BC
:100550002D0000002B0000002000000070B50446B4
:100560000D4621461068AFF300802188090502D5A9
:100570000F4A7A4402E00E4A7A440E32002104F116
:10058000240305E000F00F060009965D5E54491C47
:100590000028F7D120780023000704D5702D02D061
:1005A00009B1022311322046BDE8704000F057BA6D
:1005B000448501002DE9F05F894604464FF0000AAA
:1005C000DFF874B1FB44C0F820A02046E1688847FA
:1005D000002874D0252806D0D4E901219047206A4C
:1005E000401C2062F1E700265F462046E16888470C
:1005F0002028054607DB312D05D2781910F8200C8C
:1006000008B10643F1E7B00701D526F00406C4F8A7
:100610001CA00027C4F818A02A2D09D0284604F0F1
:10062000FBFA38B304EB8708303DC8F8185019E0DE
:1006300059F8041B204604EB87029161E168884762
:10064000012F054618D1E069002820DA26F020069F
:100650001DE0D8F8180000EB800005EB40003038B2
:10066000C8F818002046E1688847054604F0D4FA27
:100670000028EED1012F0AD02E2D08D12046E168A6
:1006800088477F1C0546022F46F02006C4DBA06980
:10069000002803DA404246F00106A061F00701D0CD
:1006A00026F010066C2D0BD0682D09D04C2D39D0BA
:1006B0006A2D35D0742D35D07A2D33D016E038E040
:1006C000E1682F4620468847B842054609D16C2F7D
:1006D00026D04FF48060E1680643204688470546EF
:1006E00004E06C2F1AD04FF4807006430DB3A5F1CF
:1006F0004100192802D8203546F400664A462946AA
:10070000204626604E46FFF799FD80B101280BD0A8
:10071000F61D26F0070000F1080956E74020E4E73F
:100720008020D8E70020D6E706F104094DE72846E7
:1007300052E7206ABDE8F09F1A850100401ECAB248
:1007400010F8011F8A4202D00029F9D10020704719
:1007500040EA010310B59B070FD1042A0DD310C83E
:1007600008C9121F9C42F8D020BA19BA884201D990
:10077000012010BD4FF0FF3010BD1AB1D30703D0D8
:10078000521C07E0002010BD10F8013B11F8014B8E
:100790001B1B07D110F8013B11F8014B1B1B01D1AA
:1007A000921EF1D1184610BD40EA0103024630B551
:1007B0009B0710D14FF0013400E008C208C91D1B8F
:1007C0009D4315EAC41FF8D013F0FF0102F8011B86
:1007D0000DD01B0AF8E711F8013B002B02F8013B92
:1007E00005D011F8013B002B02F8013BF3D130BDDD
:1007F00010B5431C02E010F8011B71B18107FAD15A
:100800004FF0013202C88C1A8C4314EAC211F9D09D
:10081000C01A0A0603D0C01E10BDC01A10BD0A04BB
:1008200001D0801E10BD0902FCD0401E10BD032A5D
:1008300040F2308010F0030C00F0158011F8013BFD
:10084000BCF1020F624498BF11F801CB00F8013BE4
:1008500038BF11F8013BA2F1040298BF00F801CBA8
:1008600038BF00F8013B11F0030300F02580083A7F
:10087000C0F0088051F8043B083A51F804CBA0E8D6
:100880000810F5E7121D5CBF51F8043B40F8043B2B
:10089000AFF30080D20724BF11F8013B11F801CB60
:1008A00048BF11F8012B24BF00F8013B00F801CB31
:1008B00048BF00F8012B704710B5203AC0F00B80FC
:1008C000B1E81850203AA0E81850B1E81850A0E854
:1008D0001850BFF4F5AF5FEA027C24BFB1E81850AE
:1008E000A0E8185044BF18C918C0BDE810405FEA1E
:1008F000827C24BF51F8043B40F8043B08BF70479A
:10090000D20728BF31F8023B48BF11F8012B28BF9E
:1009100020F8023B48BF00F8012B704702F0FF03AC
:1009200043EA032242EA024200F002B84FF000021A
:100930000429C0F0128010F0030C00F01B80CCF1F1
:10094000040CBCF1020F18BF00F8012BA8BF20F85F
:10095000022BA1EB0C0100F00DB85FEAC17C24BFB3
:1009600000F8012B00F8012B48BF00F8012B70475D
:100970004FF0000200B5134694469646203922BF38
:10098000A0E80C50A0E80C50B1F12001BFF4F7AF83
:10099000090728BFA0E80C5048BF0CC05DF804EB65
:1009A000890028BF40F8042B08BF704748BF20F8D3
:1009B000022B11F0804F18BF00F8012B7047000088
:1009C0004FF0013C50F8042B51F8043B9A4221D1DE
:1009D000A2EB0C03934313EACC1317D150F8042B6A
:1009E00051F8043B9A4215D1A2EB0C03934313EA4E
:1009F000CC130BD150F8042B51F8043B9A4209D187
:100A0000A2EB0C03934313EACC13DBD04FF00000AE
:100A1000704700BFD01A01BAB1FA81F101F0180194
:100A200022FA01F0CB40C1F12001DBB2C0B2C01A02
:100A30002CFA01F3D11A914311EAC311E6D17047A0
:100A4000704770477047704710B500F0A7F800680E
:100A500010BD10B5044600F0A1F8046010BD2DE9EA
:100A6000F0470D4699469246044600F12408016875
:100A7000880604D5E06921F01001216000E0012022
:100A8000A84201DD471B00E00027A1697A1902EBAB
:100A90000900081AA0612078C00602D42046FFF79A
:100AA000D1FC002608E0D4E901211AF8060090479D
:100AB000206A401C761C20624E45F4DB2078C0067C
:100AC0000AD52046FFF7BEFC06E0D4E9012130201C
:100AD0009047206A401C2062381EA7F10107F4DC11
:100AE00007E0D4E9012118F805009047206A401C6E
:100AF0002062281EA5F10105F3DC2046FFF7B8FCB3
:100B00002078000602D50220BDE8F0870120FBE72F
:100B100001694A1C02610878704700B58FB0CDE9C1
:100B200001310021059105497944CDE903101146B1
:100B30006846FFF73FFD0FB000BD0000E5FFFFFF77
:100B40000A6802F8010B0A60704710B5436913B1D7
:100B5000AFF3008001E0FFF79CFC012010BD12788C
:100B600000F124010A7000224A700122EDE71168A9
:100B70004FF0FF32E9E70000074B70B50D467B44AC
:100B8000FFF7CBFF0446284600F00CF810B14FF0F9
:100B9000FF3070BD204670BDE38200000048704702
:100BA000B0BE0120007B00F0800070470048704715
:100BB000B0BE01207546FFF7F9FFAE460500694655
:100BC000534620F00700854618B020B5FFF76EFBAE
:100BD000BDE820404FF000064FF000074FF000083E
:100BE0004FF0000B21F00701AC46ACE8C009ACE8BF
:100BF000C009ACE8C009ACE8C0098D46704710B523
:100C00000446AFF300802046BDE81040FFF736BB36
:100C10002DE9F04780460E4617464FF000090C209C
:100C200004F0BCF90446002C36D00C2200212046EA
:100C300004F0BBF9B00004F0B1F92060206828B3DB
:100C4000B2000021206804F0B0F9002512E0B800DD
:100C500004F0A4F9216841F82500206850F8250027
:100C600000B909E0216851F82500BA00002104F01C
:100C70009CF96D1CB542EADB00BFB54201D04FF0D4
:100C800001096660A760C8F8004007E0204604F04C
:100C900007F94FF0010901E04FF001094846BDE8AE
:100CA000F087000010B50D48006900F00100A0B108
:100CB00009F088FD0948406940F001000749486192
:100CC00000BF0748006880F480600549086000BFE5
:100CD00004480078401C0349087010BD000005500E
:100CE000141402403C00002010B50848006800F4CD
:100CF000006050B105480830006840F400600349C6
:100D00000831086002480068804710BD0064024056
:100D10004000002070B504466668002509E02068A0
:100D200050F8250020B1216851F8250004F0B8F8EA
:100D30006D1CB542F3DB206810B1206804F0B0F8F8
:100D4000204604F0ADF870BD1FB52DED040BB0B01A
:100D50009DED300B53EC102B9DED320B51EC100B35
:100D600013F0AAFACDE92E013A98401E0B9013F029
:100D700094FCCDE90C019DED0C0B53EC102B9FED79
:100D8000F70B51EC100B13F097FACDE90E019DED26
:100D90000E1B9DED2E0B02F047FA8DED2C0B3698B5
:100DA00013F07BFCCDE90A013A9813F076FCCDE90B
:100DB00008019DED0A0B53EC102B9DED080B51EC37
:100DC000100B13F0DDFECDE90C019DED0C1B9DED2C
:100DD0002C0B02F029FA8DED0E0B9DED0E0B53EC52
:100DE000102B9DED320B51EC100B13F065FACDE991
:100DF0002A019FEDDC0B01F073FF8DED040B9FEDDD
:100E0000D90B53EC102B9DED040B51EC100B13F090
:100E1000ABFCCDE906019DED060B03F091F88DEDDD
:100E20000A0B9FEDCE0B53EC102B9DED2C0B51ECD0
:100E3000100B13F085F9CDE908019DED0A0B53EC79
:100E4000102B9DED080B51EC100B13F08DFC9FED5A
:100E5000C30B53EC102BCDE90E019DED2C0B51EC87
:100E6000100B13F08DFECDE90A019DED2A0B53EC1A
:100E7000102B9DED0A0B51EC100B13F075FCCDE916
:100E80000C019DED0E0B53EC102B9DED0C0B51EC5A
:100E9000100B13F011FACDE926019DED260B53EC52
:100EA000102B9DED260B51EC100B13F05DFC9FED0C
:100EB000AD0BCDE90C0101F013FF8DED080B9FED9B
:100EC000AB0B53EC102B9DED080B51EC100B13F0FA
:100ED0004BFCCDE90A019DED0C0B53EC102B9DED65
:100EE0000A0B51EC100B13F03FFCCDE90E019DED08
:100EF0002A0B53EC102B9DED0E0B51EC100B13F045
:100F0000DBF9CDE928019DED260B53EC102B9DED6F
:100F1000260B51EC100B13F027FCCDE904019DEDDD
:100F2000280B53EC102B9DED280B51EC100B13F0FC
:100F30001BFCCDE902019DED040B53EC102B9DED44
:100F4000020B51EC100B13F0B7F99FED860BCDE9B6
:100F5000080101F0C5FE8DED040B9FED820B53ECF3
:100F6000102B9DED040B51EC100B13F0FDFBCDE9A4
:100F700006019DED080B53EC102B9DED060B51EC7B
:100F8000100B13F0FDFDCDE90A019DED0A0B02F0F7
:100F9000D7FF8DED0E0B9DED280B53EC102B9DED27
:100FA0002A0B51EC100B13F0CBF8CDE90A013B985A
:100FB0004000039013F071FBCDE904019DED040B9B
:100FC00053EC102B9FED6B0B51EC100B13F074F9DD
:100FD000CDE906019DED060B02F0F2FF8DED080B49
:100FE0009DED0A0B53EC102B9DED080B51EC100BF3
:100FF00013F0BAFBCDE90C019DED0E0B53EC102B59
:101000009DED0C0B51EC100B13F056F9CDE92401BA
:101010009DED260B53EC102B9FED580B51EC100B54
:1010200013F0A2FBCDE90E019DED0E0B53EC102B3E
:101030009FED4A0B51EC100B13F03EF9CDE9220164
:101040009DED240B53EC102B9FED4C0B51EC100B32
:1010500013F08AFBCDE90E019DED0E0B53EC102B26
:101060009FED3E0B51EC100B13F026F9CDE920015A
:10107000379813F012FB9FED390B53EC102BCDE991
:1010800008019DED080B51EC100B13F079FDCDE933
:101090000C013B9813F001FBCDE908019DED080B15
:1010A00053EC102B9FED330B51EC100B13F004F9A4
:1010B000CDE90A019DED0C0B53EC102B9DED0A0BB5
:1010C00051EC100B13F050FBCDE90E019DED0E0B12
:1010D00001F0F6FB8DED180B379813F0DEFA9FED5B
:1010E0001F0B53EC102BCDE908019DED080B51ECC3
:1010F000100B13F045FDCDE90C013B9813F0CDFA30
:10110000CDE908019DED080B53EC102B9FED190B59
:1011100051EC100B13F0D0F8CDE90A019DED0C0B4A
:1011200053EC102B9DED0A0B51EC100B13F01CFB34
:10113000CDE90E019DED0E0B02F09EFE8DED160B1E
:1011400034984068401E109000EBD0704010119011
:1011500000201390BBE100201290AEE100000000DF
:101160000000F03F00000000000000400000000010
:10117000000000C0182D4454FB210940182D445490
:10118000FB211940DDE91110401A099013F085FA8E
:10119000CDE90A019DED160B53EC102B9DED0A0BCA
:1011A00051EC100B13F0E0FACDE90E0111991398F0
:1011B000401A099013F071FACDE90A019DED180B60
:1011C00053EC102B9DED0A0B51EC100B13F0CCFAE5
:1011D000CDE90C019DED0E0B53EC102B9DED0C0B8E
:1011E00051EC100B12F0ACFFCDE91E01DDE911103E
:1011F000401A099013F051FACDE90A019DED180B40
:1012000053EC102B9DED0A0B51EC100B13F0ACFAC4
:10121000CDE90E0113991198401A099013F03DFA87
:10122000CDE90A019DED160B53EC102B9DED0A0B39
:1012300051EC100B13F098FACDE90C019DED0E0B5B
:1012400053EC102B9DED0C0B51EC100B12F078FFB2
:10125000CDE91C019DED200B53EC102B9DED200BD7
:1012600051EC100B13F080FACDE902019DED1C0B3F
:1012700053EC102B9DED1C0B51EC100B13F074FA7A
:10128000CDE900019DED020B53EC102B9DED000B01
:1012900051EC100B13F010F8CDE906019DED220B77
:1012A00053EC102B9DED220B51EC100B13F05CFA5C
:1012B000CDE902019DED1E0B53EC102B9DED1E0B95
:1012C00051EC100B13F050FACDE900019DED020B2B
:1012D00053EC102B9DED000B51EC100B12F0ECFFBA
:1012E000CDE904019DED060B53EC102B9DED040B95
:1012F00051EC100B12F024FF9FEDCF0B53EC102B91
:10130000CDE908019DED080B51EC100B13F02CFA00
:10131000CDE90A019DED0A0B01F036FB8DED0E0BB8
:10132000369813F0BAF9CDE904013A9813F0B5F9FB
:10133000CDE902019DED040B53EC102B9DED020B4A
:1013400051EC100B13F01CFCCDE906019DED061BC2
:101350009DED2C0B01F068FF8DED0A0B9DED220B2E
:1013600053EC102B1FED7B0B51EC100B13F0FCF921
:10137000CDE904019DED200B53EC102B9DED040BEA
:1013800051EC100B13F0F0F9CDE906019DED060BC1
:1013900053EC102B1FED8F0B51EC100B12F08CFF48
:1013A000CDE908019DED0A0B53EC102B9DED080BC8
:1013B00051EC100B13F0D8F9CDE90C019DED0E0B9B
:1013C00053EC102B9DED0C0B51EC100B13F0CCF9E2
:1013D000CDE91A019DED2A0B53EC102B1FED990B53
:1013E00051EC100B13F0C0F9CDE908019DED1E0B77
:1013F00053EC102B9DED080B51EC100B13F0B4F9CE
:10140000CDE90A019DED0A0B01F05AFA8DED0C0BA6
:101410009DED1A0B53EC102B9DED0C0B51EC100BAA
:1014200013F0A2F9CDE90E019DED0E0B51EC100B5E
:1014300012F054FE34990A68139952F82120129937
:1014400042F821009DED2A0B53EC102B1FEDB50B3C
:1014500051EC100B13F088F9CDE908019DED1E0B3E
:1014600053EC102B9DED080B51EC100B13F07CF995
:10147000CDE90A019DED0A0B02F0FEFC8DED0C0B8F
:101480009DED1A0B53EC102B9DED0C0B51EC100B3A
:1014900013F06AF9CDE90E019DED0E0B51EC100B26
:1014A00012F01CFE35990A68139952F821201299FE
:1014B00042F821001298401C129011984000401CE4
:1014C000129988423FF75EAE1398401C1390119812
:1014D0004000401C139988423FF73DAE3C980128DC
:1014E0007DD19FED570B8DED140B0020139027E05D
:1014F000002012901BE034980168139851F82010D6
:10150000129851F820000D9013F024FCCDE90E0143
:101510009DED140B53EC102B9DED0E0B51EC100BAD
:1015200012F00EFECDE914011298401C1290119891
:101530004000401C12998842DDDC1398401C139037
:1015400011984000401C13998842D1DC119813F087
:10155000A4F81FEDFC0B53EC102BCDE908019DED19
:10156000080B51EC100B13F0FFF89FED370B53EC09
:10157000102BCDE90A019DED0A0B51EC100B12F076
:10158000DFFD9FED331BCDE90C019DED0C0B01F050
:101590004BFE8DED0E0B9DED0E0B53EC102B9DEDC8
:1015A000140B51EC100B12F087FECDE91401002052
:1015B000139038E0002012902CE0349801681398C2
:1015C00051F82010129851F820000B9013F0C2FB34
:1015D000CDE90C019DED140B53EC102B00E028E03D
:1015E0009DED0C0B51EC100B13F0CAFACDE90E0176
:1015F0009DED0E0B51EC100B12F070FD014634986E
:101600000268139852F82020129842F8201012987D
:10161000401C129011984000401C12998842CCDC6A
:101620001398401C139011984000401C1399884255
:10163000C0DC38B010BD0000000000000000E0BFBA
:101640000000000000000000000000000000F03F6B
:10165000000000000000004010B52DED0C8B0A24A6
:10166000204613F01AF841EC1D0B9FED6A0B53EC6A
:10167000102B13F079F841EC1C0B9FED680B53EC29
:10168000102B12F05DFD41EC1B0BB0EE4B0AF0EE9F
:101690006B0A01F0A1FDB0EE40AAF0EE60AA01F0E5
:1016A00083F8B0EE409AF0EE609AB0EE491AF0EE90
:1016B000691A9FED580B01F0B7FDB0EE408AF0EECD
:1016C000608A51EC180B12F08BFF564908602046D7
:1016D00012F0E3FF41EC1D0B9FED4E0B53EC102B72
:1016E00013F042F841EC1C0B9FED4F0B53EC102B09
:1016F00012F026FD41EC1B0BB0EE4B0AF0EE6B0A2C
:1017000001F06AFDB0EE40AAF0EE60AA01F04CF8DC
:10171000B0EE409AF0EE609AB0EE491AF0EE691A17
:101720009FED3C0B01F080FDB0EE408AF0EE608A48
:1017300051EC180B12F054FF3D4908603D48006819
:1017400018B13C480068FFF7E5FA3B48006818B15B
:1017500039480068FFF7DEFA3848006818B13748A2
:101760000068FFF7D7FA3648006818B134480068B7
:10177000FFF7D0FA3348006818B132480068FFF725
:10178000C9FA3148006818B12F480068FFF7C2FA5B
:101790002E48006818B12D480068FFF7BBFA2C48A6
:1017A000006818B12A480068FFF7B4FA29480068B1
:1017B00018B128480068FFF7ADFA2748006818B14B
:1017C00025480068FFF7A6FA2448006818B12348A6
:1017D0000068FFF79FFA2248006818B120480068A7
:1017E000FFF798FA1F48006818B11E480068FFF715
:1017F00091FA1D48006818B11B480068FFF78AFA83
:101800000B4801680748006800F0CCFCBDEC0C8B6D
:1018100010BD0000000000000000004000000000BB
:1018200000004440280200200000000000003E406C
:101830002C0200202402002020020020F0010020C1
:10184000180200201C020020F4010020F8010020F2
:10185000FC010020000200200402002008020020F9
:101860000C020020100200201402002070B52DEDA3
:101870000C8B0A25284612F010FF41EC1D0B9FED42
:10188000930B53EC102B12F06FFF41EC1C0B9FEDF0
:10189000910B53EC102B12F053FC41EC1B0BB0EEF0
:1018A0004B0AF0EE6B0A01F097FCB0EE40AAF0EEA6
:1018B00060AA00F079FFB0EE409AF0EE609AB0EEC8
:1018C000491AF0EE691A9FED810B01F0ADFCB0EE04
:1018D000408AF0EE608A51EC180B12F081FE7F49CD
:1018E0000860284612F0D9FE41EC1D0B9FED770BE6
:1018F00053EC102B12F038FF41EC1C0B9FED780BD2
:1019000053EC102B12F01CFC41EC1B0BB0EE4B0AFD
:10191000F0EE6B0A01F060FCB0EE40AAF0EE60AAB7
:1019200000F042FFB0EE409AF0EE609AB0EE491A35
:10193000F0EE691A9FED650B01F076FCB0EE408A7F
:10194000F0EE608A51EC180B12F04AFE664908600E
:101950001E2228216548FFF75BF9044634B94FF48D
:10196000966202216248FFF753F904463CB95E488B
:1019700002685A4801685F48FFF74AF904465EA1C9
:101980005C4800680EF014FD3CB9574802685348A3
:1019900001685A48FFF73CF9044659A157480068C6
:1019A0000EF006FD3CB9504802684C4801685648A4
:1019B000FFF72EF9044655A1534800680EF0F8FCD5
:1019C0003CB949480268454801685248FFF720F988
:1019D000044651A14F4800680EF0EAFC2CB91522CC
:1019E00011465048FFF714F904464FA14D480068CE
:1019F0000EF0DEFC2CB9152211464C48FFF708F911
:101A000004464BA1494800680EF0D2FC3CB9364868
:101A10000268324801684748FFF7FAF8044646A1D1
:101A2000444800680EF0C4FC3CB92F4802682B48BB
:101A300001684348FFF7ECF8044642A140480068BB
:101A40000EF0B6FC3CB928480268244801683F48BB
:101A5000FFF7DEF804463EA13C4800680EF0A8FC03
:101A60003CB9214802681D4801683A48FFF7D0F8A0
:101A7000044639A1374800680EF09AFC3CB91A4870
:101A80000268164801683548FFF7C2F8044634A1D9
:101A9000324800680EF08CFC3CB9134802680F48CD
:101AA00001683148FFF7B4F8044630A12E480068B9
:101AB0000EF07EFC34B90C4801680848006800F05C
:101AC000CDFB04462046BDEC0C8B70BD0000000031
:101AD00000000040000000000000444028020020F8
:101AE0000000000000003E402C02002024020020E4
:101AF00020020020F0010020494D4700180200207C
:101B0000465F7265616C00001C020020465F696DD3
:101B100061670000F4010020494D475F696D61670E
:101B200000000000F801002047720000FC010020C6
:101B30004769000000020020546D705F3100000012
:101B400004020020546D705F320000000802002083
:101B5000465F31000C020020465F32001002002078
:101B6000475F7265616C000014020020475F696D79
:101B7000616700002DE9F34F89B00F460A247868A9
:101B80000690B8680590FE48006800F0D7FCB86879
:101B900000EB04090221B86811FB040A00264DE09D
:101BA000002514E0601E801B396851F82010601E6B
:101BB000401B01EB800090ED000AF14800680068CE
:101BC00050F8260000EB850080ED000A6D1CA54250
:101BD000E8DB254613E0601E801B396851F82000C1
:101BE000291B00EB810090ED000AE54800680068C1
:101BF00050F8260000EB850080ED000A6D1C4D4575
:101C0000E9DB4D4617E0601E801B396851F8201053
:101C1000B868C5EB40002044401E01EB800090ED09
:101C2000000AD7480068006850F8260000EB8500DD
:101C300080ED000A6D1C5545E5DB761CA642AFDB46
:101C4000786800EB0409B86800EB040A0221B86860
:101C500001FB0400089026464BE0002513E0311BF1
:101C6000386850F82110601E401B01EB800090ED99
:101C7000000AC3480068006850F8260000EB8500A1
:101C800080ED000A6D1CA542E9DB254612E0311B00
:101C9000386850F82100291B00EB810090ED000A04
:101CA000B7480068006850F8260000EB850080ED1A
:101CB000000A6D1C5545EADB554616E0311B3868B5
:101CC00050F82110B868C5EB40002044401E01EBDD
:101CD000800090ED000AAA480068006850F82600CD
:101CE00000EB850080ED000A6D1C08988542E5DB5D
:101CF000761C4E45B1DB786800EB04090221786858
:101D000001FB040AB86820440890B86801FB04008D
:101D100007904E4658E0002517E0D7E90010C6EBC3
:101D200040002044401E51F82010601E401B01EB73
:101D3000800090ED000A92480068006850F8260084
:101D400000EB850080ED000A6D1CA542E5DB254611
:101D500016E0D7E90010C6EB40002044401E51F8C1
:101D60002000291B00EB810090ED000A84480068E8
:101D7000006850F8260000EB850080ED000A6D1C1D
:101D800008988542E5DB089D1AE0D7E90010C6EB0C
:101D900040002044401E51F82010B868C5EB4000B8
:101DA0002044401E01EB800090ED000A744800685A
:101DB000006850F8260000EB850080ED000A6D1CDD
:101DC00007988542E1DB761C5645A4DB6D48006828
:101DD00000F0B4FB6C48006800F0B0FB6B48006892
:101DE00000F0ACFB69480368654802686648016812
:101DF0006448006800F056F96548006800F09EFBF2
:101E00006448006800F09AFB6348006800F096FBA5
:101E10006248006800F092FB6148006800F08EFBA9
:101E20006048006800F08AFB5F48006800F086FBAD
:101E30005E48006800F082FB4FF00008C8E04FF0F9
:101E4000000BBFE00121022208F102009FED581BA8
:101E50009FED590B5B46CDE90121009002464D48AC
:101E600001684B480068FEF76FFF600061000022C8
:101E700000921346CDE90121039045480168484886
:101E8000006800F0ACF86000610000220092134688
:101E9000CDE9012103903F4801684248006800F005
:101EA0009EF8404803683E480268404801683E4842
:101EB000006800F0F7F8334802683B48016836488C
:101EC000006800F0C5FA30480268384801683348B5
:101ED000006800F0BDFA314802682F4801682848C0
:101EE000006800F0DCFA284802682F4801682A4898
:101EF000006800F0ADFA234802682C4801682748C2
:101F0000006800F0A5FA25480268234801681F48C8
:101F1000006800F0EBFA1D480368194802681F4882
:101F200001681D48006800F001FA0BEB48000490BE
:101F3000002621E000251BE0174800680068022108
:101F400001FB046150F82100022101FB045100EB68
:101F5000810090ED000A09980168049851F820105A
:101F6000059806FB005001EB800080ED000A6D1C17
:101F700005988542E0DB761C06988642DADB1FE096
:101F8000F0010020180200201C020020F4010020B3
:101F9000F8010020FC0100200002002004020020C3
:101FA000080200200C020020100200201402002071
:101FB000666666666666EE3F9A9999999999D93FE1
:101FC0000BF1010BBBF1020FFFF63CAF08F101086A
:101FD000B8F1010FFFF633AF0BB0BDE8F08F2DE97C
:101FE000F04F0E46DDE90945002A59DBD0F804B070
:101FF000934555DD002B53DBD0F808B09B454FDDF2
:10200000002C4DDBD6F804B0A34549DD002D47DB9D
:10201000D6F808B0AB4543DDDDF82CB0ABEB040BD4
:102020000BF1010CDDF830B0ABEB050B0BF1010847
:10203000BCF1010F34DBB8F1010F31DB02EB0C0B0B
:10204000ABF1010903EB080BABF1010AD0F804B0C6
:10205000CB4525DDD0F808B0D34521DD00211DE0BA
:10206000002718E001EB040ED6F800B05BF82EB0A4
:1020700007EB050E0BEB8E0B9BED000A01EB020E3E
:10208000D0F800B05BF82EB007EB030E0BEB8E0B15
:102090008BED000A7F1C4745E4DB491C6145DFDB13
:1020A000BDE8F08F2DE9FE4F074688461646994653
:1020B000D6F804A0D6F808B0012429E0012523E0D1
:1020C000601E316851F82010681E01EB800090ED11
:1020D000000A3048006850F8240000EB850080EDCD
:1020E000000A601ED9F8001051F82010681E01EB9C
:1020F000800090ED000A2848006850F8240000EBAA
:10210000850080ED000A6D1CB068A842D8DA641C16
:102110007068A042D2DA0120CDE900AB02901E48DF
:1021200003681C4802681D4801681D48006806F0E5
:10213000E3FD012429E0012523E01948006850F857
:10214000240000EB850090ED000A601E396851F80C
:102150002010681E01EB800080ED000A0F48006827
:1021600050F8240000EB850090ED000A601ED8F8BE
:10217000001051F82010681E01EB800080ED000A6D
:102180006D1CB068A842D8DA641C7068A042D2DA2C
:10219000BDE8FE8F30020020340200203C02002007
:1021A0003802002038B505460C462548006838B18D
:1021B00001232A46194622480094006806F0AFFE23
:1021C0002048006838B101232A4619461D4800946A
:1021D000006806F0A4FE1C48006838B101232A46B6
:1021E000194619480094006806F099FE17480068DF
:1021F00038B101232A46194614480094006806F0B5
:102200008EFE1348006828B16A000121104800685A
:1022100006F0A6FE0F48006828B1620001210D48B3
:10222000006806F09DFE0C48006838B1620001238A
:10223000194609480095006806F071FE38BD000097
:102240003002002034020020380200203C0200202E
:102250004402002048020020400200207CB50446D1
:102260000D460020019001A82B4601222146009036
:1022700010460CF0B3FD264908609DF8040048B9EB
:1022800001A82B4601222146009010460CF0A6FD25
:10229000204908609DF8040048B901A82B46012296
:1022A0002146009010460CF099FD1B4908609DF8EE
:1022B000040048B901A82B4601222146009010468F
:1022C0000CF08CFD154908609DF8040030B96100E0
:1022D00001AA012011F096FE114908609DF8040042
:1022E00030B9690001AA012011F08CFE0D49086087
:1022F0009DF8040048B901A861002B460122009016
:1023000010460CF06BFD084908609DF804007CBD88
:102310003002002034020020380200203C0200205D
:102320004402002048020020400200202DE9F04F26
:102330002DED028B83B00746884616469946D6F89F
:1023400004A0D6F808B0012429E0012523E0601E8E
:10235000316851F82010681E01EB800090ED000AF2
:102360003748006850F8240000EB850080ED000A33
:10237000601ED9F8001051F82010681E01EB800093
:1023800090ED000A2F48006850F8240000EB85000B
:1023900080ED000A6D1CB068A842D8DA641C706831
:1023A000A042D2DA4FF0FF30CDE900AB02902548D1
:1023B000036823480268244801682448006806F03E
:1023C0009BFC0AFB0BF000EE100AB8EEC08A012459
:1023D0002DE0012527E01D48006850F8240000EB9F
:1023E000850090ED000AC0EE080A601E396851F8B9
:1023F0002010681E01EB8000C0ED000A1248006842
:1024000050F8240000EB850090ED000AC0EE080AA9
:10241000601ED8F8001051F82010681E01EB8000F3
:10242000C0ED000A6D1CB068A842D4DA641C706864
:10243000A042CEDA03B0BDEC028BBDE8F08F000005
:1024400030020020340200203C020020380200202C
:1024500030B503460C4600201DE0002117E025683A
:1024600055F8205005EB810595ED000A156855F8E3
:10247000205005EB8105D5ED000A20EE200A1D68ED
:1024800055F8205005EB810585ED000A491C9D6833
:102490008D42E4DC401C5D688542DEDC30BD30B539
:1024A00003460C4600201DE0002117E0256855F882
:1024B000205005EB810595ED000A156855F8205070
:1024C00005EB8105D5ED000A30EE600A1D6855F870
:1024D000205005EB810585ED000A491C9D688D4261
:1024E000E4DC401C5D688542DEDC30BD30B503466F
:1024F0000C4600201DE0002117E0256855F820500B
:1025000005EB810595ED000A156855F8205005EB9F
:102510008105D5ED000A30EE200A1D6855F82050DF
:1025200005EB810585ED000A491C9D688D42E4DCC0
:10253000401C5D688542DEDC30BD000000210FE0FC
:10254000002209E09FED080A036853F8213003EBED
:10255000820383ED000A521C83689342F2DC491C1B
:1025600043688B42ECDC7047000000002DE9F0412D
:102570008EB080460E46002700243046FEF738F91C
:10258000C5B2FD208DF8040000208DF80500E81C80
:10259000C0B28DF8060001208DF8070040EA08104F
:1025A000C0B28DF8080000BF03E001A8005D4740FD
:1025B000641C052CF9D3002402E0305D4740641C04
:1025C000AC42FAD32A4631460DF10900FEF72FF945
:1025D000681D01A90F54A81DC1B201A800F0BCF8E4
:1025E0000EB0BDE8F08100001CB50848006840F05E
:1025F0000100064908600120009000231A460221CC
:102600000190034810F0E2F81CBD00003038024091
:102610000000024010B50221064810F0C3F801285E
:1026200003D100200449087002E00120024908702B
:1026300010BD0000000002401400002010B50C483E
:10264000006800F0010058B10A490869804700207D
:102650000749143108604FF47A7005491C3108604D
:102660000348006820F001000149086010BD000027
:1026700010080040B000002010B50A48006900F0C2
:10268000010038B10848017808A0FDF7BBFE002022
:10269000054908700348006920F0010001490861FC
:1026A00010BD0000001000403C0000206672616D0B
:1026B000653A25646670730D0A0000001C490968BC
:1026C00001F0200109B31A494968C8B219490988BB
:1026D00001F40041C9B91749098801F4804161B189
:1026E0000A2803D00021134A118020E011490988EB
:1026F00041F400410F4A118019E00D2806D10D491F
:10270000098841F480410B4A118010E00949098889
:10271000C1F30D01084A505406490988491C054A6D
:10272000118011460988C72901DD002111807047F9
:1027300000100140200000204C02002000BF05498D
:10274000096801F040010029F9D00249091D08601B
:10275000704700000044004030B502460B4600249C
:1027600005E012F8010BFFF7E9FF601CC4B29C42C0
:10277000F7DB30BD03B401984100009850EAC12056
:1027800018BF04204A0D18BF40F0010040F2FF724C
:10279000B2EB515F08BF40F00200012808BF0520DE
:1027A00002B07047000000002DE9F0412DED020B52
:1027B0009FED3D0B2DED028B9FED3D8BDDE902542E
:1027C000C4F30A50A0F2FF36142E37DA002E18DABE
:1027D00053EC102B9DED020B51EC100B11F0B0FCE3
:1027E00053EC182B12F0BEF857D2002CBCBF4FF0A0
:1027F0000044002551DB54EA050018BF2E4C1BD1C4
:102800004BE02E4820FA06F704EA070028431FD0C1
:1028100053EC102B9DED020B51EC100B11F090FCC2
:1028200053EC182B12F09EF837D2002C03DD4FF436
:102830008010F0400444BC4300252EE0332E07DC1A
:10284000A6F114004FF0FF3121FA00F73D4206D106
:102850009DED020BBDEC028B02B0BDE8F08153ECA4
:10286000102B9DED020B51EC100B12F0B1F853EC54
:10287000182B12F077F810D2002C0DDD142E08BFA3
:10288000641C09D0C6F13400012101FA00F028448B
:10289000A84238BF641C0546BD43CDE902549DEDF6
:1028A000020BD7E7000000009C7500883CE4377EEF
:1028B00000000000000000000000F03FFFFF0F00DC
:1028C00010B52F499FED2C1B2DED020B84B0059800
:1028D00020F000408842D8BF9DED040B2DDD294932
:1028E000884209D1049840B94FF00100FEF7B1F8D1
:1028F00002F062F906B010BD05DB9DED040B02F09D
:1029000047F906B010BD68469DED040B01F098FB39
:1029100010F0030004BF9DED021B9DED000B0CD0D9
:1029200001280ED09DED021B9DED000B022817D053
:10293000012001F0D5FE06B010BD01F09DFD06B0EE
:1029400010BD9DED021B9DED000B012001F0C8FEA6
:1029500051EC100B11F0B6FB06B041EC100B10BDA2
:1029600001F08AFD51EC100B11F0ACFB06B041EC0C
:10297000100B10BD0000000000000000000000006F
:10298000FB21E93F0000F07F70B52DED020B2DED2E
:102990000A8B82B00D98C40F20F00045AE488542E6
:1029A00048D3AE48854219D30C99C5F313000843A8
:1029B00009D09DED0C0B02B0BDEC0A8B02B0BDE856
:1029C000704002F0E5B8002C14BF9FEDA50B9DED03
:1029D0000C0B02B0BDEC0A8B02B070BD9FEDA20BD8
:1029E00053EC102B9DED0C0B51EC100B11F0BAFFBA
:1029F0000AD20220FEF72DF802B0BDEC0A8B02B01D
:102A0000BDE8704002F0E8B89FED990B53EC102B35
:102A10009DED0C0B51EC100B11F06AFE0AD2022056
:102A2000FEF717F802B0BDEC0A8B02B0BDE87040AB
:102A300002F0E2B890489FED92BBA8425CD2924867
:102A4000854219D29148784400EBC40090ED000B08
:102A500053EC102B9DED0C0B51EC100B12F090F879
:102A600041EC1A0B8A48784400EBC40090ED009BBF
:102A7000C4F10100041B36E09FED870B53EC102BD3
:102A80009DED0C0B51EC100B11F06EFE41EC100B98
:102A90008348784400EBC40090ED001B51EC100B10
:102AA00053EC112B11F04CFB11F09AFD044611F080
:102AB000F4FD41EC180B9FED7C0B53EC102B11F047
:102AC00053FE9DED0C1B53EC112B11F081FF41ECDB
:102AD0001A0B9FED770B51EC180B53EC102B11F0E8
:102AE00043FE41EC190B51EC1A0B53EC192B12F06D
:102AF00047F8CDE90C011BE06F48854217D29FEDE6
:102B0000700B53EC102B9DED0C0B51EC100B11F0D6
:102B100017FB53EC1B2B11F025FF08D29DED0C0B7E
:102B200053EC1B2B51EC100B11F00AFB6EE0002450
:102B30009DED0C0B53EC102B51EC100B11F014FE0F
:102B400041EC180B60480521B0EE480AF0EE680A27
:102B5000784401F049FD53EC182B51EC100B11F0A7
:102B600003FE9DED0C1B53EC112B11F031FF41ECDA
:102B7000180B9FED570B5CB353EC182B51EC100B5B
:102B800011F0FEFF9DED0C0B41EC1C0B53EC182BD0
:102B900051EC100B11F0E8FD53EC1C2B11F08CFBE9
:102BA00053EC192B11F014FF53EC1A2B11F0E8FF22
:102BB00053EC1B2B11F00CFFCDE900016FF47F707B
:102BC000844226DB01EB045001909DED000B00E7F1
:102BD00053EC102B51EC180B11F0D2FF9DED0C0BA8
:102BE00041EC190B53EC182B51EC100B11F0BCFD00
:102BF00053EC192B11F060FB9DED0C1B53EC112BCA
:102C000011F0BEFF53EC1B2B11F0E2FE41EC100B58
:102C1000DFE608464FF07A5101EB04519FED2E0B91
:102C2000084453EC102B01909DED000B51EC100B60
:102C300011F09AFD0D4645EC100B044651EC100BBB
:102C4000FFF798FD042808BF01F0D6FF45EC104BB4
:102C5000BFE6000000000000422E86400000F07F2A
:102C60000000000000000000EF39FAFE422E86400E
:102C700051302DD5104987C0422ED63F00000000AC
:102C8000000000000000F03FB2A2F03FBE60010073
:102C9000AE60010000000000FE822B654715F73F83
:102CA00062600100000000000000E0FE422EE63FEE
:102CB000763C7935EF39EA3D0000303E00000000F7
:102CC0009C7500883CE4377ED45F01000000000062
:102CD0000000000000000040000000000000700143
:102CE00070B5D94B00242DED020B2DED108BDDE9D5
:102CF0001010984205DA20F000429A4201D809D11A
:102D000041B19DED100BBDEC108B02B0BDE87040E1
:102D100001F03EBFB0F5801F26DA11430BD000282A
:102D200013DA0120FDF795FEBDEC108B02B0BDE873
:102D3000704001F041BF0220FDF78BFE01F010FF53
:102D400051EC100B11F0BEF99EE06FF035049FEDD1
:102D5000C00B53EC102B9DED100B51EC100B11F030
:102D600003FDCDE91001084604EB2051C0F3130424
:102D7000B948A1F2FF31204400F4801080F07F6256
:102D800082F04052224301EB20559FEDB50B11928A
:102D900053EC102B9DED100B51EC100B11F0F0FECD
:102DA00041EC180BA01CC0F313009FEDAFDB9FEDAF
:102DB000B0EBB14E7E4403286CD296ED000B51EC83
:102DC000180B53EC102B11F0CFFB1DD1002D01BFC0
:102DD00096ED000BBDEC108B02B070BD284611F0D3
:102DE0005CFC41EC180B53EC1D2B11F0BDFC41ECCD
:102DF000190B53EC1E2B51EC180B11F0B5FC53ECD6
:102E0000192B11F09DF93FE09FED9D0B51EC180B34
:102E100053EC102B11F0A8FC9FED9B1B53EC112BD6
:102E200011F0D6FD41EC190B53EC182B51EC180B9B
:102E300011F09AFC53EC192B11F096FC41EC190B94
:102E4000002D04BF53EC192B51EC180B1AD0284657
:102E500011F023FC41EC1A0B53EC1D2B11F084FCF8
:102E600053EC192B11F0B4FD53EC182B11F088FE24
:102E700041EC180B53EC1E2B51EC1A0B11F074FCA7
:102E800053EC182B11F07CFEBDEC108B02B041EC22
:102E9000100B70BD9FED7E0B51EC180B53EC102BFB
:102EA00011F04EF941EC100B51EC180B53EC102BB8
:102EB00011F002FA41EC190B284611F0EEFB41EC3F
:102EC0001B0B53EC192B51EC190B11F04DFC41EC81
:102ED0001A0B714853EC1A2B261851EC1A0B11F0EF
:102EE00043FC41EC1F0B6D48C4F1510404F5D72499
:102EF000B0EE4F0AF0EE6F0A0321784401F074FB44
:102F000053EC1F2B51EC100B11F02EFC41EC1C0B61
:102F10006348B0EE4F0AF0EE6F0A0421784401F0E6
:102F200063FB53EC1A2B51EC100B11F01DFC3443D6
:102F300053EC1C2B11F004F941EC1C0B002C4CDD64
:102F40009FED510B51EC180B53EC102B11F00CFCB6
:102F500053EC182B11F008FC41EC1A0B55B353EC51
:102F60001D2B51EC1B0B11F0FFFB41EC1D0B53EC27
:102F70001C2B51EC1A0B11F0E3F853EC192B11F048
:102F8000F3FB53EC1D2B11F0DBF853EC1A2B11F073
:102F90001FFD53EC182B11F0F3FD41EC180B53EC13
:102FA0001E2B51EC1B0B11F0DFFB53EC182B11F017
:102FB000E7FD69E753EC1C2B51EC1A0B11F0C0F83C
:102FC00053EC192B11F0D0FB53EC1A2B11F000FD30
:102FD00053EC182B11F0FCFC56E735B353EC1D2BCA
:102FE00051EC1B0B11F0C0FB41EC1A0B53EC1C2BEA
:102FF00051EC180B11F0C4FD53EC192B11F0B4FB7C
:1030000053EC1A2B11F0BCFD53EC182B11F0B8FD4A
:1030100041EC180B53EC1E2B51EC1B0B11F0A4FBD5
:1030200053EC182B11F0ACFD2EE753EC1C2B51EC9C
:10303000180B11F0A5FD53EC192B11F095FB53EC77
:10304000182B11F0C5FC1FE70000F07F0000000006
:103050000000000000005043645F09000000000011
:10306000000000000000F03F763C7935EF39EA3D82
:103070000000E0FE422EE63F885E010000000000F6
:10308000555555555555D53F000000000000E03F0F
:10309000000000000000004086EBF9FF525C0100D8
:1030A000485C01000000000070B5414A00252DED8C
:1030B000020B2DED048BDDE90404944205DA24F0C3
:1030C0000041914201D809D140B19DED040BBDEC06
:1030D000048B02B0BDE8704001F05ABDB4F5801F0A
:1030E00026DA08430BD0002C13DA0120FDF7B1FCDF
:1030F000BDEC048B02B0BDE8704001F05DBD022064
:10310000FDF7A7FC01F02CFD51EC100B10F0DAFFDD
:1031100046E09FED290B6FF0350553EC102B9DED2C
:10312000040B51EC100B11F01FFBCDE904010C4610
:1031300005EB2450A0F2FF30C10F40F2FF32521ACB
:1031400062F31F54084411F0A8FA05949DED040B96
:1031500041EC180B51EC100B0BF039FA9FED181BDA
:1031600053EC112B11F000FB9FED170B41EC190BE9
:1031700053EC102B51EC180B11F0F6FA53EC192B01
:1031800010F0DEFF9FED120B41EC190B53EC102BEE
:1031900051EC180B11F0E8FA53EC192B10F0D0FF9A
:1031A000BDEC048B02B041EC100B70BD00000000C0
:1031B0000000F07F0000000000000000000050430D
:1031C0000EE526157BCBDB3F362BF111F3FE593D87
:1031D00000609F501344D33F10B52DED068BB0EE29
:1031E000408AF0EE608A9FED0E0BFFF75DFFB0EEB8
:1031F000409AF0EE609AB0EE480AF0EE680AFFF7E7
:1032000053FFB0EE40AAF0EE60AA53EC192B51EC3C
:103210001A0B11F051F841EC100BBDEC068B10BDF0
:1032200000000000000000402DE9F04D2DED040BE2
:103230002DED0E8B96B0DDE92550279CDDF890A092
:1032400025F0004624F00048BAF1000F14BF012118
:10325000002101EB4502FC4953184A1093422AD33E
:10326000002814BF0123002303EB44030B44F74958
:103270008B4220D358EA00019FEDF59B76D0DFF812
:10328000D8B35D4503D1BAF1000F05D188E0BAF19A
:10329000000F08BF002100D0012101EB450111F50D
:1032A000001F08D8002814BF0121002101EB4401B0
:1032B00011F5001F0BD99DED261B9DED240B16B0BB
:1032C000BDEC0E8B04B0BDE8F04D01F06BBC0027E7
:1032D000002DBCBFE149884521DAE1498845A8BFF6
:1032E00002271CDAC3451ADCDE4901EB28511429F8
:1032F00008DDC1F1340220FA02F101FA02F2824241
:103300000DD108E058B9C1F1140228FA02F101FA0E
:1033100002F2424503D101F00101C1F1020756EA70
:103320000A0124D1002C22DA002D18BF022F01D06F
:10333000012F0AD00220FDF78CFB16B0BDEC0E8BDE
:1033400004B0BDE8F04D01F00BBC0220FDF781FB9D
:1033500001F006FC51EC100B10F0B4FE41EC100B28
:1033600016B0BDEC0E8B04B0BDE8F08D18E09FEDFB
:10337000BEAB9FEDBF8B002871D1B848804522D1EC
:1033800005F1804010F5801008BFBAF1000F07D09A
:10339000B3450ADC002CA8BF9DED260BE0DA0DE05A
:1033A000B0EE490AF0EE690ADAE7002C06DA9DED84
:1033B000260B51EC100B10F085FE6FE0AE48784400
:1033C00090ED000BCCE7D8454DD1002C48DA2EB15A
:1033D00086423AD1BAF1000F42D126E0BAF1000F8D
:1033E00013D00220FDF735FB01F0F6FB8DED020B4B
:1033F0009DED240B8DED000B10EE900A039961F307
:103400001E0003909DED020BAAE78DED02AB9DED32
:10341000240B1AEE901A10EE900A8DED000B61F35A
:103420001E0003909DED020B9AE78DED028B9DED42
:10343000240B18EE901A10EE900A8DED000B61F33C
:103440001E0003909DED020B8AE709DA9DED240B27
:1034500051EC190B53EC102B10F02EFF1EE020E066
:103460009DED240B7CE786421BDAB4F1804F0DD032
:10347000A4F10050B0F1FF5013D1002D11DB9DEDF0
:10348000240B51EC100B0EF0CFFC07E09DED240B4C
:1034900053EC102B51EC100B00F0C2BC41EC100BA4
:1034A0005EE79DED240B51EC100B05F036F8BAF1F8
:1034B000000FCDE90E0142D19FED710B46B3A6F18D
:1034C000E040B0F17F600CD05E4538D1002D00DACD
:1034D000A7B3022F0CBF01204FF0FF3011F0DDF831
:1034E000DCE7002D01DD002C0DDA002D01DD002CC4
:1034F0001FDB002D16DA002C14DB012F08BF9FED17
:10350000620B3FF42DAFB0EE4A0AF0EE6A0A27E7ED
:10351000022F18BF002D0CD0012F0AD1002DFFF66D
:103520001FAF06E0002DB8BF002C08DA012F3FF4D2
:1035300017AFB0EE480AF0EE680A11E71BE0012071
:1035400000EBE57050EA070115D0791EB0EE498A0C
:10355000F0EE698A084308BF9FED4D8B4E48002569
:10356000804570DD4D494E48884514DDB0420DDB85
:10357000002C19DB2FE00120FDF76BFA16B0BDEC33
:103580000E8B04B0BDE8F04D01F016BBB34502DC74
:10359000002C09DC1FE0864202DA002C1BDA03E073
:1035A0005E452BDD002C16DD0220FDF752FA01F0FE
:1035B00013FB8DED020B53EC1A2B51EC180B11F091
:1035C000D3F8CDE900010399019861F31E0003903F
:1035D0009DED020BC4E60220FDF73BFA01F00CFB67
:1035E00010EE901A18EE900A8DED020B8DED008B07
:1035F00061F31E0003909DED020BB1E69DED0E0BF5
:1036000053EC192B51EC100B11F0BAFA9FED260B6D
:10361000CDE9080153EC102B9DED080B51EC100B7C
:1036200011F0A2F89FED221B53EC112B11F0D0F9F1
:103630009DED081B53EC112B11F096F89FED1E1B0E
:1036400053EC112B3CE08CE0FFFF1F00FFFF0F004D
:10365000000000000000F03F0000F03F0000F07F9D
:103660000000404301FCFFFF000000000000F07F6D
:1036700000000000000000007E5801000000000073
:103680000000000000000080000000000000F0FFCB
:10369000000000000000F0BF0000E0410000F04327
:1036A000FFFFEF3F00000000000000000000D03FDF
:1036B000555555555555D53F000000000000E03FD9
:1036C00011F086F99DED080B41EC1A0B53EC102B11
:1036D00051EC100B11F048F853EC1A2B11F044F890
:1036E00041EC1A0B9FEDFE0B53EC102B9DED080BDC
:1036F00051EC100B11F038F841EC1B0B9FEDFA0B5D
:1037000051EC1A0B53EC102B11F02EF841EC1A0B64
:103710009FEDF70B53EC102B9DED080B51EC100BAC
:1037200011F022F853EC1A2B11F02AFA41EC1A0B83
:1037300051EC1B0B53EC1A2B10F002FD0690CDE957
:1037400006519DED060B53EC1B2B51EC100B11F0A9
:1037500017FA53EC1A2B11F03BF941EC100B00F067
:10376000A1B90020B6F5801F0EDA9FEDE30B53ECF4
:10377000102B9DED0E0B51EC100B10F0F5FFCDE969
:103780000E016FF034000E4600EB2650A0F2FF371A
:10379000C6F31300DA4940F07F6646F0405688428F
:1037A000D8BF002408DDD7498142C8BF012403DC0B
:1037B0000024A6F580167F1CD348784400EBC40093
:1037C0000F9690ED00CB9DED0E0B53EC1C2B51ECA6
:1037D000100B11F0D5F99DED0E0B41EC1B0B53ECCA
:1037E0001C2B51EC100B10F0ABFC41EC100B51EC0E
:1037F000190B53EC102B10F05FFD41EC1D0B51EC3D
:103800001B0B53EC1D2B10F0AFFF41EC1A0BBF4804
:103810008DED10AB7844109590ED000B4FF00050FB
:1038200040EA660000EB84408DED080B00F50020B7
:1038300009909DED080B53EC1C2B51EC100B11F073
:103840009FF99DED0E1B53EC112B11F0C1F841ECCB
:10385000100B53EC102B9DED100B51EC100B10F0D6
:1038600083FF9DED080B41EC1C0B53EC102B9DEDE1
:10387000100B51EC100B10F077FF53EC1B2B11F0D9
:10388000A7F853EC1C2B11F07BF953EC1D2B10F017
:103890006BFF41EC1C0B53EC1A2B51EC1A0B10F084
:1038A00063FF41EC1B0B9A480621B0EE4B0AF0EE89
:1038B0006B0A784400F098FEB0EE401AF0EE601A01
:1038C000B0EE41DAF0EE61DA53EC1B2B51EC1B0B3E
:1038D00010F04AFF53EC1D2B10F046FF9DED100B2E
:1038E00041EC1B0B53EC1A2B51EC100B10F028FC85
:1038F00053EC1C2B10F038FF53EC1B2B10F020FC6A
:103900009DED100B41EC1B0B53EC102B51EC100BED
:1039100010F02AFF41EC1D0B9FED7FEB53EC1E2BAB
:1039200010F00EFC53EC1B2B10F00AFC0890CDE9B4
:1039300008519DED080B53EC1E2B51EC100B11F0B0
:103940001FF953EC1D2B11F01BF953EC1B2B11F03D
:103950003FF89DED080B41EC1D0B53EC102B9DED3A
:10396000100B51EC100B10F0FFFE41EC1B0B53EC55
:103970001A2B51EC1D0B10F0F7FE9DED080B41ECDE
:103980001A0B53EC102B51EC1C0B10F0EDFE53EC0A
:103990001A2B10F0D5FB41EC1A0B51EC1B0B53EC1E
:1039A0001A2B10F0CDFB0C90CDE90C519DED0C0BBA
:1039B00053EC1B2B51EC100B11F0E2F853EC1A2BCB
:1039C00011F006F841EC1B0B9FED550B53EC102B3F
:1039D0009DED0C0B51EC100B10F0C6FE41EC1A0BD8
:1039E0009FED510B51EC1B0B53EC102B10F0BCFE58
:1039F00041EC1B0B9FED4E0B53EC102B9DED0C0B74
:103A000051EC100B10F0B0FE53EC1B2B10F098FB98
:103A100041EC100B4848784400EBC40090ED001BCB
:103A200051EC100B53EC112B10F08AFB41EC1B0BEB
:103A3000384610F032FECDE9080153EC1B2B51EC57
:103A40001A0B10F07DFB41EC100B3C48784400EB66
:103A5000C40090ED00CB51EC100B53EC1C2B10F07C
:103A60006FFB9DED081B53EC112B10F069FB0690CA
:103A7000CDE906519DED080B53EC102B9DED060B87
:103A800051EC100B11F07CF853EC1C2B11F078F872
:103A900053EC1A2B11F074F853EC1B2B10F098FF19
:103AA00041EC100B9DED261B53EC102B8DED001BF4
:103AB00000959DED260B51EC100B10F055FE9DED81
:103AC000000B41EC1A0B53EC102B9DED260B51EC27
:103AD000100B11F055F89DED061B53EC112B2FE048
:103AE000000000604715F73FFE822B654715F73F42
:103AF00044DF5DF80BAE543E000000000000404380
:103B00008E9803007AB60B00CA53010028540100B6
:103B10000253010000000000000000000000084007
:103B2000000000E009C7EE3FFD033ADC09C7EE3FA5
:103B3000F5015B14E02F3EBE8E510100485101009B
:103B400010F012FE53EC1A2B10F0FAFA9DED060B52
:103B500041EC1A0B53EC102B9DED000B51EC100BAC
:103B600010F002FECDE90C019DED0C0B51EC1A0B8F
:103B700053EC102B10F0E4FACDE902010C46AA49EF
:103B80008C422FDB611A084318D19DED0C0B53ECCE
:103B9000102B9DED020B51EC100B10F0F1FF41ECDE
:103BA0001B0B9FEDA30B51EC1A0B53EC102B10F0D9
:103BB000C7FA53EC1B2B10F0D5FE2DD20220FCF7D8
:103BC00048FF01F009F810EE901A18EE900A8DEDFA
:103BD000020B8DED008B61F31E0003909DED020B37
:103BE000FFF7BEBB944A24F00041914214D393499D
:103BF000214408437FF4EFAC9DED0C0B53EC102BEC
:103C00009DED020B51EC100B10F0BAFF53EC1A2B88
:103C100010F0A8FE7FF6DFAC24F000408849894A06
:103C2000002601EB205182422BDA481C4FF4801110
:103C300021FA00F02044844AC0F30A517A44A1F2E8
:103C4000FF3192ED000B814A8DED080BCA4020EA4E
:103C50000202C0F3130040F48010C1F1140120FAF5
:103C600001F60992002CB8BF76429DED080B53EC8B
:103C7000102B9DED0C0B51EC100B10F081FFCDE9DA
:103C80000C019DED0C0B51EC1A0B53EC102B10F0AA
:103C900057FA9FED6F0B0890CDE9085153EC102BAC
:103CA0009DED080B51EC100B10F05EFD41EC1B0B71
:103CB0009FED690B53EC102B9DED080B51EC100B95
:103CC00010F052FD9DED0C0B41EC1C0B53EC102B36
:103CD0009DED080B51EC100B10F052FF53EC1A2B1A
:103CE00010F076FE9FED5E1B53EC112B10F03CFDA7
:103CF00053EC1C2B10F024FA41EC1A0B51EC1B0B6B
:103D000053EC1A2B10F01CFACDE902019DED020BC9
:103D100053EC1B2B51EC100B10F032FF53EC1A2B11
:103D200010F056FE9DED020B41EC1A0B53EC102BDC
:103D300051EC100B10F018FDCDE908014A489DED3B
:103D4000080B0521784400F04FFC9DED081B51EC59
:103D5000100B53EC112B10F007FD9DED021B53ECE3
:103D6000112B10F035FECDE906019DED020B53EC51
:103D70001A2B51EC100B10F0F7FC53EC1A2B10F02F
:103D8000DFF99FED3B0B41EC1A0B53EC102B9DED33
:103D9000060B51EC100B10F0F3FE9DED060B41EC01
:103DA0001B0B53EC102B9DED020B51EC100B10F084
:103DB000DBFC53EC1B2B10F07FFA53EC1A2B10F0AA
:103DC000DFFE9DED021B53EC112B10F0D9FE53ECDE
:103DD000192B10F0FDFDCDE9020101EB0650011594
:103DE0000029C8BF039015DC9DED020B324651EC53
:103DF000100B11F05CF8FEF7BDFC042808BF00F0C2
:103E0000FBFE32469DED020B51EC100B11F04FF80A
:103E1000CDE902019DED020B51EC180B53EC102B78
:103E200010F0A2FCFFF73ABB000090400000000039
:103E3000FE822B654715973C00CC904000346F3FC5
:103E400001FCFFFF0000E03F00500100FFFF0F00FA
:103E500000000000432EE63F396CA80C615C20BED8
:103E6000EF39FAFE422EE63FA04E010000000000AE
:103E7000000000000000004010B52F499FED2C1BF2
:103E80002DED020B84B0059820F000408842DCBF85
:103E900000209DED040B32DD2849884209D10498A9
:103EA00040B94FF00100FCF7D4FD00F085FE06B0EC
:103EB00010BD05DB9DED040B00F06AFE06B010BDE1
:103EC00068469DED040B00F0BBF810F0030011D024
:103ED000012818D09DED021B9DED000B02281AD081
:103EE00000F0CAFA51EC100B10F0ECF806B041ECFF
:103EF000100B10BD9DED021B9DED000B012000F08D
:103F0000EFFB06B010BD9DED021B9DED000B00F018
:103F1000B3FA06B010BD012000F0E2FB51EC100B2B
:103F200010F0D0F806B041EC100B10BD00000000FE
:103F30000000000000000000FB21E93F0000F07FCE
:103F400000B52DED048BB0EE409AF0EE609A83B090
:103F500051EC190B10F048FD41EC180B18EE100A4B
:103F600018EE901A8DED008B002818BF0120084331
:103F700020F00040C0F17F6000F1E040C00F14D09D
:103F800019EE101A19EE900A8DED009B002918BF4A
:103F90000121084320F00040C0F17F6000F1E040C3
:103FA000C00F04BF0120FCF754FDB0EE480A03B077
:103FB000F0EE680ABDEC048B00BD000000000000BC
:103FC00010B51D499FED1A1B2DED020B84B005980D
:103FD00020F000408842DCBF01209DED040B21DD74
:103FE0001649884209D1049840B94FF00100FCF706
:103FF00030FD00F0E1FD06B010BD05DB9DED040BCA
:1040000000F0C6FD06B010BD68469DED040B00F043
:1040100017F800F001000121A1EB40009DED021B0B
:104020009DED000B00F0F4FB06B010BD0000000099
:104030000000000000000000FB21E93F0000F07FCD
:104040002DE9F14F04462DED020B2DED088B8AB0C2
:104050009FEDE70B80ED020B139EE74826F000452D
:1040600085420ADC9DED120B002084ED000B0AB0A6
:10407000BDEC088B03B0BDE8F08FE0489FEDE0ABEE
:104080009FEDE1BBA84247DDE14F9FEDE39B9FED34
:10409000E48B9DED120B53EC1A2B51EC100B002E00
:1040A0001CDD10F06DFD41EC100BBD4208D053EC4F
:1040B0001B2B51EC100B10F063FDC4E900010BE069
:1040C00053EC192B51EC100B10F05AFD53EC182B3C
:1040D00010F056FDC4E900010120C8E710F030F8E7
:1040E00041EC100BBD4208D053EC1B2B51EC100BD4
:1040F00010F026F8C4E900010BE053EC192B51EC49
:10410000100B10F01DF853EC182B10F019F8C4E93F
:1041100000014FF0FF30AAE7C348A84279DB9DEDCC
:10412000120B51EC100B04F0F8F941EC180B9FED59
:10413000C00B53EC102B10F017FB9FEDBF1B53EC83
:10414000112B0FF0FDFF10F04BFA074610F0A5FA07
:1041500041EC190B53EC1A2B10F006FB53EC182B07
:1041600010F036FC41EC180B53EC1B2B51EC190BE7
:1041700010F0FAFADFF8C8A241EC100B4FEA15581C
:104180000125FA4453EC102B51EC180B10F0F8FCFD
:10419000032DC4E900013DD0C1F30A5005EB4511E0
:1041A000A8EB00001139814234DA0AEB051BB0EEAE
:1041B00048AA9BED000BF0EE68AA53EC102B51ECD3
:1041C000190B10F0D1FA41EC1B0B51EC1A0B53EC0C
:1041D0001B2B10F0D5FC41EC180B51EC1A0B53ECD7
:1041E000182B10F0CDFC53EC1B2B10F0C9FC9BEDF1
:1041F000020B41EC1A0B53EC102B51EC190B10F085
:10420000B3FA53EC1A2B10F0BBFC41EC100B6D1CF5
:10421000B8E70EE0002EA8BF3846BFF628AF94EDF1
:10422000000B51EC100B0FF04DFFC4E90001784278
:104230001DE7C6F3130040F4801EC6F30A50A0F237
:10424000F530471100F01F05C5F12000DDF848B03A
:1042500008900020069007900520EC467949002D33
:1042600007EB0002794408BF51F8221009D051F839
:10427000223001EB8201AB404A68089922FA01F131
:104280001943A1FB0E26A1FB0B131A449A4234BF1B
:104290000123002303EB06080CEB8003D3E901A6FE
:1042A0000E448E4234BF0121002192448A4411B150
:1042B000924502D903E0924501D2012100E000219C
:1042C000C3E901A641444CF82010011EA0F10100F1
:1042D000C4DC029800F10050850F0298DDE9036705
:1042E0008000DDF8148010F0D8F941EC1A0B30464C
:1042F00010F0EAF99FED541B53EC112B10F034FA37
:1043000041EC1B0B384610F0DFF99FED511B53ECCD
:10431000112B10F029FA41EC180B404610F0D4F99B
:104320009FED4D1B53EC112B10F01EFA41EC190BB5
:1043300051EC180B53EC192B0FF002FF53EC1B2B15
:104340000FF0FEFE53EC1A2B0FF0FAFECDE9080138
:10435000002008909DED080B53EC1A2B51EC100B2C
:1043600010F00EFC53EC1B2B10F00AFC53EC182B36
:1043700010F006FC53EC192B10F02AFB9FED381BB4
:1043800053EC112B10F0F0F99FED370B41EC180BAB
:1043900053EC102B9DED080B51EC100B10F0E4F9D1
:1043A00053EC182B0FF0CCFE9FED310B41EC180BAA
:1043B00053EC102B9DED080B51EC100B10F0D4F9C1
:1043C00053EC182B0FF0BCFE41EC100B139810F0BF
:1043D000004F06D06D4251EC100B0FF073FE41EC14
:1043E000100B284684ED000B41E6000000000000A1
:1043F0000000000000000000FB21E93F7CD90240E2
:1044000000004054FB21F93F3163621A61B4D03D92
:10441000FB21F93F000000000000601A61B4D03DAC
:104420007370032E8A19A33BFB2139410000000061
:1044300083C8C96D305FE43F000000000000E03F2A
:10444000C24A0100104A0100000000000000103EB6
:10445000000000000000103C000000000000103AC6
:10446000182D4454FB21F93D3326A611460B113C6F
:1044700000000054FB21F93D10B52DED040B2DED8E
:10448000088B82B0B0EE419AF0EE619A0B9820F062
:1044900000449FED4BABB4F1795F11DA9DED0A0B4F
:1044A00051EC100B10F09CF8002801BFB0EE4A0A46
:1044B000F0EE6A0A02B0BDEC088B04BF04B010BD78
:1044C0009DED0A0B53EC102B51EC100B10F04CF936
:1044D00041EC180B3C480621B0EE480AF0EE680AA1
:1044E000784400F081F853EC182B51EC100B10F0CD
:1044F0003BF99DED0A0B41EC1B0B53EC192B51ECD6
:10450000100B10F031F941EC190B53EC1B2B51EC53
:10451000180B10F029F953EC192B10F031FB9FED1B
:104520002C0B41EC190B53EC102B51EC180B10F029
:104530001BF941EC100B2848844210DA53EC192B7C
:1045400051EC100B10F01CFB53EC1A2B10F040FA3E
:1045500041EC100B02B0BDEC088B04B010BD1F483D
:10456000A042BCBF9FED1E1B8DED001B06DBA4F51A
:1045700000100190002000909DED001B51EC100BED
:1045800053EC112B10F0FCFA9DED000B41EC180BD5
:1045900053EC102B51EC1A0B10F0F2FA41EC1A0B01
:1045A00053EC192B51EC180B10F0EAFA53EC1A2BC0
:1045B00010F00EFA41EC100BCCE7000000000000F8
:1045C000000000000000F03F2C4701000000000048
:1045D000000000000000E03F3333D33F0000E93F1C
:1045E000000000000000D23F70B504462DED028BA4
:1045F0004D1E00EBC500B0EE408AF0EE608A90EDF3
:10460000000B35F0060017D053EC182B51EC100BB3
:1046100010F0AAF841EC100B6D1E04EBC50090EDF4
:10462000001B51EC100B53EC112B0FF089FD41ECEA
:10463000100B35F00600E7D1022D36D0042D1CD02A
:10464000062D1CBFBDEC028B70BD53EC182B51EC3A
:10465000100B10F089F894ED0A1B53EC112B0FF09E
:104660006FFD53EC182B10F07FF894ED081B53EC02
:10467000112B0FF065FD41EC100B53EC182B51EC96
:10468000100B10F071F894ED061B53EC112B0FF08A
:1046900057FD53EC182B10F067F894ED040B53EC16
:1046A000102B0FF04DFD41EC100B53EC182B51EC7F
:1046B000100B10F059F894ED021B53EC112B0FF076
:1046C0003FFD53EC182B10F04FF894ED001B53EC0A
:1046D000112B0FF035FDBDEC028B41EC100B70BDC2
:1046E00031B504462DED040B2DED0A8BB0EE41BA29
:1046F000F0EE61BA0B989DED0A0B20F00040B0F18E
:10470000795F0DDA51EC100BFEF734F8042808BF7E
:1047100000F072FA9DED0A0BBDEC0A8B05B030BDBE
:1047200053EC102B51EC100B10F01EF841EC180B51
:104730009DED0A0B53EC182B51EC100B10F014F8F4
:1047400041EC190B2C48B0EE480AF0EE680A05213E
:104750007844FFF749FF9FED2ACBB0EE40AAF0EE78
:1047600060AA9CB353EC1C2B51EC190B0FF0FCFF0F
:1047700041EC1C0B53EC1A2B51EC190B0FF0F4FF0E
:104780009FED210B41EC190B53EC102B51EC1B0B43
:104790000FF0EAFF53EC192B10F0F2F953EC182B41
:1047A0000FF0E2FF53EC1B2B10F0EAF953EC1C2B3B
:1047B00010F0E6F99DED0A1B53EC112B10F008F9EF
:1047C000BDEC0A8B05B041EC100B30BDFFE753EC9C
:1047D0001A2B51EC180B0FF0C7FF53EC1C2B0FF0EA
:1047E000AFFC53EC192B0FF0BFFF9DED0A1B53ECF0
:1047F000112B0FF0A5FCE3E7BC4501000000000011
:10480000495555555555C5BF000000000000E03F13
:10481000F1B506462DED040BBD482DED0C8B8AB08D
:10482000B0EE418AF0EE618A179D25F000449FEDBD
:10483000BABB9FEDBBCB844208DA9DED160B51EC61
:10484000100B0FF0CDFE002800F0E980B64FA74214
:1048500031DC002D0DDA9DED160B51EC100B0FF035
:1048600031FCCDE9160151EC180B0FF02BFC41EC9B
:10487000180B9FEDAF0B53EC102B9DED160B51EC6D
:10488000100B10F0A5F853EC182B9FEDAB0BCDE9F6
:10489000040151EC100B10F073F941EC100B53ECC8
:1048A000102B9DED040B51EC100B0FF049FC9FED0C
:1048B000A48BCDE916019DED160B53EC102B51EC9A
:1048C000100B0FF051FFCDE904019DED040B53ECEB
:1048D000102B51EC100B0FF047FF41EC190B9A48CD
:1048E0000621B0EE490AF0EE690A7844FFF77CFE33
:1048F0009648B0EE40DAF0EE60DAB0EE490AF0EE3B
:10490000690A06217844FFF76FFE9DED041B51EC08
:10491000100B53EC112B0FF027FF9DED040B41EC16
:104920001A0B53EC102B9DED160B51EC100B0FF0E6
:104930001BFF41EC190B53EC1A2B51EC1D0B0FF024
:10494000FFFB53EC192B0FF00FFF53EC182B0FF05C
:10495000F7FB9DED041B53EC112B0FF005FF53ECFF
:10496000182B0FF0EDFB41EC180B9FED790B51EC80
:10497000190B53EC102B0FF0F7FE53EC182B0FF024
:10498000DFFB41EC190B9DED160B53EC192B51EC91
:10499000100B0FF0D5FB41EC180BA74269DC304639
:1049A0000FF07BFE41EC1A0B51EC180B53EC1A2B59
:1049B0000FF0C6FB41EC1B0B53EC182B51EC180B02
:1049C0000FF0D2FE53EC1B2B0FF076FC53EC192B9F
:1049D00010F0D6F89DED161B53EC112B0FF0F8FFDD
:1049E0009FED5D1B53EC112B0FF0BEFE53EC1A2B09
:1049F0000FF0EEFF41EC180B022000EAA570C0F1A9
:104A000001000FF04AFE53EC182B0FF0ADFE00BF73
:104A100041EC100B0AB0BDEC0C8B05B0F0BD711C65
:104A20001698214308430CD09DED160B012E1CBF98
:104A300053EC102B51EC1C0B10D000BF0FF03CFCC2
:104A4000E6E79DED160B51EC100B03F066FD41EC13
:104A5000100B51EC1B0B53EC102BEFE751EC100B30
:104A6000FDF788FE042808BF00F0C6F89DED160B80
:104A7000D0E7012E04BFB0EE480AF0EE680AC9D0B4
:104A80008DED048B002404949DED040B53EC102B4E
:104A90009DED160B51EC100B0FF09AFF53EC192BF8
:104AA0000FF096FF41EC190B53EC182B51EC1C0B3B
:104AB0000FF002FC41EC180B8DED008B00949DED86
:104AC000040B53EC102B9DED000B51EC100B0FF071
:104AD0004BFE53EC1B2B0FF033FB9DED000B41EC19
:104AE0001A0B53EC192B51EC100B0FF03DFE53EC4D
:104AF0001A2B0FF025FB53EC182B0FF035FE9DED14
:104B0000001B53EC112B0FF01BFB81E70000000092
:104B10000000303E00000000000000000000F03FF8
:104B2000000000000000F0BF2894E53F00000000F6
:104B3000182D4454FB21E93F075C143326A6813C21
:104B400000000000000000004A4401006044010031
:104B5000635555555555D53F0000000000000040F5
:104B60009FED070B10B553EC102B9FED070B51EC8D
:104B7000100B0FF0A1FB41EC100B10BD000000006A
:104B80000000000000000000000000000000F03FF6
:104B900010B553EC102B51EC100B0FF0D1FA41EC87
:104BA000100B10BD10B553EC112B51EC100B0FF086
:104BB000C7FA41EC100B10BD9FED050B10B553EC7F
:104BC000102B51EC100B0FF077FB41EC100B10BDCC
:104BD00000000000000000009FED050B10B553EC35
:104BE000102B51EC100B0FF0BFFD41EC100B10BD62
:104BF00000000000000000709FED050B10B553ECA5
:104C0000102B51EC100B0FF0AFFD41EC100B10BD51
:104C1000000000000000001030380A2801D20120F6
:104C200070470020704700BF7047000010B502A118
:104C30000220FDF79BFC10BD5B76375D5B6D315D3F
:104C40005B74355D20736F756E646E20CEB2CBE6FB
:104C5000CDA8D0D0B1A8BEAF00000000C91CD0F8CC
:104C60008830002221F003018B4206D35A1AC0F883
:104C7000882050F8842F11440160104670470000CE
:104C80002DE9F05F2DED028B83468A46FF208AF8DE
:104C90000000584600F080F8804600260BE0002215
:104CA0004146304600F0DEF98146B9F1000F00D0F0
:104CB00003E0701CC6B2142EF1DB00BF142E04D129
:104CC0000220BDEC028BBDE8F09F002418E0002715
:104CD00013E0C4EB041107EB410118F801000FF0D9
:104CE000F3FC41EC180B0FF0F9F929490968096840
:104CF00051F8241041F827007F1C1E2FE9DB641CAB
:104D0000282CE4DB234909688968224A1268526822
:104D10005143880000F042F905460DB90120D0E763
:104D20001B4801681B480068FCF724FFA8460024C4
:104D300012E018480068006850F824101548006810
:104D4000806882004046FBF772FD12480068806868
:104D5000042101FB0088641C0E4800684068A042E2
:104D6000E7DC0C48006880680A49096849684843DC
:104D700082002946304600F02FFA8146B9F1000F33
:104D800001D18AF80060284600F08AF8484698E782
:104D900024020020200200202DE9F05F0746BB46D8
:104DA00000252BE0002426E0C5EB051004EB4000B5
:104DB00037F8106006F478404FEA202806F4FC60CB
:104DC0004FEAE009F0064FEA106A4C2018FB00F0A9
:104DD000C9EB091101EB810100EB4100CAEB0A119B
:104DE00000EB4100C0F30F28C5EB051104EB4101B6
:104DF0000BF80180641C1E2CD6DB6D1C282DD1DB2A
:104E0000584600F0DDF85846BDE8F09F70B50446FE
:104E10001E2000F0C3F805460DB9012070BD2246E2
:104E200006A12846FBF7FAFA284603F0B6F906462B
:104E3000284600F035F83046F0E70000303A41549B
:104E40004B5F465245432F4D4F44454C5F25303311
:104E5000642E66656100000010B5FCF7FDFB0E498D
:104E6000886800F01DF8002406E00B49C96851F875
:104E7000240000F015F8641C142CF6DB0649C86801
:104E800000F00EF80449486800F00AF8034800688A
:104E900000F006F810BD0000A0BE0120EC010020CB
:104EA00010B50446214602200AF08CFD10BD00001A
:104EB00070B5FCF7DBFC0546002D37D1502000F023
:104EC0006DF81D49C860142000F068F81A49486060
:104ED0004FF4165000F062F8174988600846806861
:104EE00018B3012411E04FF4165000F057F812499E
:104EF000CA68611E42F821000F48C168601E51F85F
:104F0000200008B9012502E0641C142CEBDD00BF71
:104F10004FF4007000F042F80849086035B90846BF
:104F2000006818B100F00CF800E001250DB1FFF7A2
:104F300093FF284670BD0000A0BE0120EC010020B8
:104F400070B5002013490870002420E01248006862
:104F50008068114B1B685B68584382000D48C0682D
:104F600050F82410204600F07DF805464DB9012088
:104F700008494968085507480078401C05490870E9
:104F800003E00020034949680855601CC4B2142C92
:104F9000DCDB70BDA0BE01202002002010B504465D
:104FA000214602200AF020FD10BD70B504460D46D2
:104FB00016463246294620460AF0FAFC70BD00002B
:104FC0002DE9F041064635464FF400720021244891
:104FD0000068FFF7EAFF00240CE028782049096800
:104FE00031F81000401C29781D4A126822F811007F
:104FF0006D1C641CB4F5966FEFDB01240EE01848BD
:10500000006830F81410601E154A126832F810005B
:1050100008441349096821F81400641CFF2CEEDDD4
:105020000F48006807880E480068B0F8FE01C01BF2
:105030001FFA80F8354600240CE0287808490968F2
:1050400031F81000C01BC0EB002090FBF8F0287076
:105050006D1C641CB4F5966FEFDBBDE8F0810000B9
:10506000EC0100202DE9F8430646884615461E202F
:10507000FFF794FF81464FF41670FFF78FFF074646
:105080002FB94846FFF70CFF0120BDE8F8833246F0
:1050900012A14846FBF7C2F901224946384602F000
:1050A00077FC04466CB965B16B462A4641463846E2
:1050B00002F053FE04460098A84201D1002400E00B
:1050C0000324384602F01EF904B103244846FFF7D2
:1050D000E7FE3846FFF7E4FE2046D6E7303A415473
:1050E0004B5F465245432F4D4F44454C5F2530336F
:1050F000642E6665610000002DE9F0472DED028BFE
:1051000080460E469FED2F0AF0EE408A4FF0FF37A3
:10511000FF2030704046FFF73FFE8146002418E034
:10512000002513E0C4EB041005EB400019F8000063
:1051300000EE100AB8EE400A23480068006850F8F4
:10514000240000EB850080ED000A6D1C1E2DE9DBBC
:10515000641C282CE4DB1C4801681C480068FCF730
:1051600009FD002418E01A484068005D98B118480D
:10517000C06850F8241028231E221448006800F04C
:10518000CDFAB0EE408AB4EEE88AF1EE10FA02D21F
:10519000F0EE488A2746641C142CE4DB781C20B906
:1051A0000420BDEC028BBDE8F0879FED0A0AF4EE07
:1051B000C08AF1EE10FA01DD0520F2E73770002019
:1051C000EFE700009EC97F7F24020020200200201C
:1051D000A0BE012000409C462DE9F84305460F463D
:1051E00090461E20FFF7DAFE81464FF41670FFF757
:1051F000D5FE06462EB94846FFF752FE0120BDE80F
:10520000F8832A4610A14846FBF708F915A002F0DA
:10521000C3FA06224946304602F0BAFB044634B9C6
:105220006B4642463946304603F035F80446304670
:1052300002F068F804B103244846FFF731FE304617
:10524000FFF72EFE2046DAE7303A41544B5F4652D4
:1052500045432F4D4F44454C5F253033642E6665E2
:1052600061000000303A41544B5F46524543000014
:105270001CB500BF0B48006840F0200009490860D9
:1052800000BF012000900023024601020190064861
:105290000DF09CFA00224FF4807103480DF08AFA59
:1052A0001CBD000030380240001402402DE9F047D8
:1052B0000446007B894600F01F060120D4E9001552
:1052C000B040276E401E4FF00008074023E094F8DE
:1052D0006400A8B949B9A568D4F88C304FF480624D
:1052E00029462046984701000CD015F8010B491EAD
:1052F000B8F1000F0AD04FF0000808B184F864003C
:10530000FF2005E06FF00100BDE8F087FF280FD017
:1053100040EA072708364E45D9D3A6EB0900276691
:105320002073C4E9001500F01F0027FA00F0EBE736
:105330004FF00108EFE72DE9F04F002350F8404B04
:105340004FF4B55C50F8402B4FF4B5580768066C25
:10535000E519E41B971B324407FB0CF7C2EB273619
:1053600005EB0209A5EB020B06EB040A50F860CC32
:10537000056EA61B50F8207CACEB0504026AAC4419
:10538000D51B3A44ACEB020707FB08F7624404EB79
:10539000050C41F690580CFB08FC41F2511804FB37
:1053A00008F44FEA2C3C42F6CF1805FB08F5ACEBAD
:1053B0002535ACEB2434AD1A09EB020C40F880CC57
:1053C000A9EB020202660AEB050240F8602CC5EB6D
:1053D0002737AAEB05020264F21940F8402CF21BB1
:1053E000E41B02620BEB040240F8202CABEB04023E
:1053F0005B1C40F87C29082BA0DB002320384FF4ED
:10540000B55850F8082B5B1C50F8085B02F50042B9
:1054100050F8106B50F808CC9419971BA5EB0C02B0
:105420004FF4B556724316130CEB0502B51A05EB93
:10543000070AA7EB0509A618A4EB020B50F8045CB9
:1054400050F81CCC50F80C2C50F8147CACEB050434
:10545000AC44D51B3A44ACEB020707FB08F76244A7
:1054600004EB050C41F690580CFB08FC41F2511876
:1054700004FB08F44FEA2C3C42F6CF1805FB08F574
:10548000ACEB2535ACEB2434AD1A06EB020C4FEA3D
:105490002C2C21F80ECBB21A121221F80C290AEB8F
:1054A0000502121221F8022BAAEB0502C5EB2737E1
:1054B00012120A8109EB0702121221F8042BA9EB40
:1054C00007021212E41B4A800BEB0402121221F8AD
:1054D000022CABEB0402121221F8082B082B8EDBF6
:1054E000BDE8F08F2DE9FF4F97B08A4693461F46DF
:1054F000DDF8908000201590039017B1B8F1000FEF
:1055000003D129201BB0BDE8F08F0AEB0700401E35
:105510006E490988884201DD2920F3E70BEB08007A
:10552000401E6A494988884201DD2920EAE74FF494
:1055300000600AF036FF04460CB91120E2E74FF490
:1055400016700AF02EFF1690169820B920460AF021
:1055500021FF1120D6E74FF042094222002104A882
:105560000AF026FA2820CDF81E00CDF82270CDF8DA
:1055700026800121ADF82A101021ADF82C1003214E
:10558000CDF82E10DDF82610DDF822205143BDF8AD
:105590002C2001FB02F0C11700EB5171CA10CDF8AD
:1055A000322044F64250ADF81000DDF83200484495
:1055B000CDF81200CDF81A904FF47840CDF846009F
:1055C0004FF4FC61CDF84A101F21CDF84E102598FC
:1055D000012805D10322DDE9160102F0D9F9039073
:1055E000259810B10398042805D10622DDE916019B
:1055F00002F0CEF90390DDF822104800C11700EB4D
:1056000091718910A0EB810161B1DDF82210480091
:10561000C11700EB91718910491C4FF6FF7202EA25
:10562000810605E0DDF822004FF6FF7101EA400631
:105630000398002842D115AB4A4604A9169802F0F7
:105640002AFE03900BEB0800401E80B201902EE072
:105650000025CDF808A015E0DDF82200A84207DDFE
:105660001B480268DDE90110904724F8150003E0AB
:105670004FF6FF7024F81500681C85B20298401C94
:1056800080B2029006EBD671B5EB610FE4D1DDF884
:105690002600401ECDF8260015AB3246214616984E
:1056A00002F0F9FD03900198401E80B20190DDF8F0
:1056B00026000028CCD1169801F024FE20460AF0DE
:1056C00069FE16980AF066FE03981BE71403002093
:1056D0008CBE012070B505460C4600BF0D48006821
:1056E00040F010000B49086000BF0B48C56284629F
:1056F000C06840F001000849C8600846006840F0F2
:105700000100086002233622032101200DF0D2F8A7
:1057100070BD000040380240001000402DE9F04705
:105720002DED028B82B00546884691469A469FED44
:105730001F0AF0EE408A9FED1E0AB0EE408A6FF01D
:1057400001072AE06FF0010624E09FED190AB0EE90
:10575000408A002413E0CDE900672A6852F824004B
:1057600004FB09F202FB0AF208EB820153464A46A7
:1057700000F020F830EE080AB0EE408A641C686839
:10578000A042E8DCF4EEC88AF1EE10FA01DBF0EE9C
:10579000488A761C022ED8DD7F1C022FD2DDB0EEA7
:1057A000680A02B0BDEC028BBDE8F0879EC97F7F1E
:1057B000000000002DE9F04F2DED0A8B83B08146EB
:1057C0008A4616469B46DDE916789FEDA20BB0EEA1
:1057D000409AF0EE609A00200290B8F1000F7DDB55
:1057E000002F40DB44463BE03D4636E004FB0650DC
:1057F00009EB800090ED008AE81BA4EB080101FB97
:1058000006000AEB8000D0ED008A38EE680A20EE30
:10581000000A10EE101A08460FF09CFA41EC1C0B1F
:10582000B0EE4C0AF0EE6C0AFEF78AFBB0EE40BA1E
:10583000F0EE60BA51EC1B0B0EF050FC01900FF033
:1058400089FA41EC1A0B53EC192B0EF079FC41EC60
:10585000190B0298401C02906D1CB542C6DB641CFB
:105860005C45C1DBCBE044463EE0002538E004FB6C
:10587000065009EB800090ED008AE81BA4EB0801BC
:1058800001FB06000AEB8000D0ED008A38EE680AC2
:1058900020EE000A10EE101A08460FF05BFA41ECF9
:1058A0001C0BB0EE4C0AF0EE6C0AFEF749FBB0EEB2
:1058B00040BAF0EE60BA51EC1B0B0EF00FFC0190F9
:1058C0000FF048FA41EC1A0B53EC192B0EF038FC90
:1058D00041EC190B0298401C029000E007E06D1C9F
:1058E000F019A842C3DC641C5C45BEDB87E0002FD6
:1058F00042DB00243BE03D4636E004FB065009EB6A
:10590000800090ED008AE81BA4EB080101FB060073
:105910000AEB8000D0ED008A38EE680A20EE000A1B
:1059200010EE101A08460FF015FA41EC1C0BB0EE01
:105930004C0AF0EE6C0AFEF703FBB0EE40BAF0EE54
:1059400060BA51EC1B0B0EF0C9FB01900FF002FA8C
:1059500041EC1A0B53EC192B0EF0F2FB41EC190B36
:105960000298401C02906D1CB542C6DB641C0BEB18
:105970000800A042BFDC42E000243CE0002536E005
:1059800004FB065009EB800090ED008AE81BA4EBB5
:10599000080101FB06000AEB8000D0ED008A38EE1A
:1059A000680A20EE000A10EE101A08460FF0D2F92D
:1059B00041EC1C0BB0EE4C0AF0EE6C0AFEF7C0FA9C
:1059C000B0EE40BAF0EE60BA51EC1B0B0EF086FB65
:1059D00001900FF0BFF941EC1A0B53EC192B0EF0AC
:1059E000AFFB41EC190B0298401C02906D1CF019A2
:1059F000A842C5DC641C0BEB0800A042BEDC9FED96
:105A0000170B53EC102B51EC190B0EF0ABFF06D219
:105A10009FED140A03B0BDEC0A8BBDE8F08F02982D
:105A20000EF03BFE41EC1B0B9FED0F0B53EC102BCC
:105A300051EC190B0EF098FE41EC1C0B53EC1B2B98
:105A40000EF03AFC41EC1A0B0EF048FB00EE100A87
:105A5000E0E700000000000000000000000000C0BF
:105A600033F9EF479EC97F7F0000000000005940D6
:105A70002DE9F04704460D4690469946AD1E606BF1
:105A800000EB153AC5F3C80605F007010120884070
:105A9000C7B200BF51460AF1010A204609F0ACFE28
:105AA00010B10120BDE8F08700BF00BF04F13C0049
:105AB000805D384008B1012000E00020484501D158
:105AC0000220EFE704F13C00805D784004F13C01E6
:105AD00088550120E070A8F10100B0F1000800D164
